{
  "_format": "hh-sol-artifact-1",
  "contractName": "Upload",
  "sourceName": "contracts/Upload.sol",
  "abi": [
    {
      "inputs": [
        {
          "internalType": "uint256",
          "name": "_nftId",
          "type": "uint256"
        }
      ],
      "name": "buyNft",
      "outputs": [],
      "stateMutability": "payable",
      "type": "function"
    },
    {
      "inputs": [
        {
          "internalType": "string",
          "name": "_url",
          "type": "string"
        },
        {
          "internalType": "string",
          "name": "_name",
          "type": "string"
        }
      ],
      "name": "createNft",
      "outputs": [],
      "stateMutability": "payable",
      "type": "function"
    },
    {
      "inputs": [],
      "name": "getNfts",
      "outputs": [
        {
          "components": [
            {
              "internalType": "address",
              "name": "owner",
              "type": "address"
            },
            {
              "internalType": "string",
              "name": "url",
              "type": "string"
            },
            {
              "internalType": "string",
              "name": "name",
              "type": "string"
            },
            {
              "internalType": "uint256",
              "name": "price",
              "type": "uint256"
            },
            {
              "internalType": "bool",
              "name": "listed",
              "type": "bool"
            },
            {
              "internalType": "uint256",
              "name": "value",
              "type": "uint256"
            }
          ],
          "internalType": "struct Upload.nft[]",
          "name": "_nfts",
          "type": "tuple[]"
        }
      ],
      "stateMutability": "view",
      "type": "function"
    },
    {
      "inputs": [
        {
          "internalType": "uint256",
          "name": "_nftId",
          "type": "uint256"
        },
        {
          "internalType": "uint256",
          "name": "_price",
          "type": "uint256"
        }
      ],
      "name": "listNft",
      "outputs": [],
      "stateMutability": "nonpayable",
      "type": "function"
    },
    {
      "inputs": [
        {
          "internalType": "uint256",
          "name": "",
          "type": "uint256"
        }
      ],
      "name": "nfts",
      "outputs": [
        {
          "internalType": "address",
          "name": "owner",
          "type": "address"
        },
        {
          "internalType": "string",
          "name": "url",
          "type": "string"
        },
        {
          "internalType": "string",
          "name": "name",
          "type": "string"
        },
        {
          "internalType": "uint256",
          "name": "price",
          "type": "uint256"
        },
        {
          "internalType": "bool",
          "name": "listed",
          "type": "bool"
        },
        {
          "internalType": "uint256",
          "name": "value",
          "type": "uint256"
        }
      ],
      "stateMutability": "view",
      "type": "function"
    }
  ],
  "bytecode": "0x608060405234801561001057600080fd5b5061151b806100206000396000f3fe60806040526004361061004a5760003560e01c8063243adbdd1461004f578063265aa6211461006b5780634f138e8c146100ad578063d8cb55e3146100c9578063fe8723e1146100f4575b600080fd5b61006960048036038101906100649190610982565b61011d565b005b34801561007757600080fd5b50610092600480360381019061008d9190610982565b6102f6565b6040516100a496959493929190610aaa565b60405180910390f35b6100c760048036038101906100c29190610c4e565b61047f565b005b3480156100d557600080fd5b506100de61059d565b6040516100eb9190610e8f565b60405180910390f35b34801561010057600080fd5b5061011b60048036038101906101169190610eb1565b6107a5565b005b600080828154811061013257610131610ef1565b5b90600052602060002090600602019050600081600501548260030154600261015a9190610f4f565b6101649190610f91565b90508160040160009054906101000a900460ff166101b7576040517f08c379a00000000000000000000000000000000000000000000000000000000081526004016101ae90611011565b60405180910390fd5b803410156101fa576040517f08c379a00000000000000000000000000000000000000000000000000000000081526004016101f19061107d565b60405180910390fd5b60008260000160009054906101000a900473ffffffffffffffffffffffffffffffffffffffff1690508073ffffffffffffffffffffffffffffffffffffffff166108fc84600301549081150290604051600060405180830381858888f1935050505015801561026d573d6000803e3d6000fd5b5060003390508073ffffffffffffffffffffffffffffffffffffffff166108fc84346102999190610f91565b9081150290604051600060405180830381858888f193505050501580156102c4573d6000803e3d6000fd5b508360030154846005018190555060008460040160006101000a81548160ff0219169083151502179055505050505050565b6000818154811061030657600080fd5b90600052602060002090600602016000915090508060000160009054906101000a900473ffffffffffffffffffffffffffffffffffffffff169080600101805461034f906110cc565b80601f016020809104026020016040519081016040528092919081815260200182805461037b906110cc565b80156103c85780601f1061039d576101008083540402835291602001916103c8565b820191906000526020600020905b8154815290600101906020018083116103ab57829003601f168201915b5050505050908060020180546103dd906110cc565b80601f0160208091040260200160405190810160405280929190818152602001828054610409906110cc565b80156104565780601f1061042b57610100808354040283529160200191610456565b820191906000526020600020905b81548152906001019060200180831161043957829003601f168201915b5050505050908060030154908060040160009054906101000a900460ff16908060050154905086565b60006040518060c001604052803373ffffffffffffffffffffffffffffffffffffffff16815260200184815260200183815260200134815260200160001515815260200134815250908060018154018082558091505060019003906000526020600020906006020160009091909190915060008201518160000160006101000a81548173ffffffffffffffffffffffffffffffffffffffff021916908373ffffffffffffffffffffffffffffffffffffffff160217905550602082015181600101908161054c91906112a9565b50604082015181600201908161056291906112a9565b506060820151816003015560808201518160040160006101000a81548160ff02191690831515021790555060a0820151816005015550505050565b60606000805480602002602001604051908101604052809291908181526020016000905b8282101561079c57838290600052602060002090600602016040518060c00160405290816000820160009054906101000a900473ffffffffffffffffffffffffffffffffffffffff1673ffffffffffffffffffffffffffffffffffffffff1673ffffffffffffffffffffffffffffffffffffffff16815260200160018201805461064a906110cc565b80601f0160208091040260200160405190810160405280929190818152602001828054610676906110cc565b80156106c35780601f10610698576101008083540402835291602001916106c3565b820191906000526020600020905b8154815290600101906020018083116106a657829003601f168201915b505050505081526020016002820180546106dc906110cc565b80601f0160208091040260200160405190810160405280929190818152602001828054610708906110cc565b80156107555780601f1061072a57610100808354040283529160200191610755565b820191906000526020600020905b81548152906001019060200180831161073857829003601f168201915b50505050508152602001600382015481526020016004820160009054906101000a900460ff16151515158152602001600582015481525050815260200190600101906105c1565b50505050905090565b8160008054905081106107ed576040517f08c379a00000000000000000000000000000000000000000000000000000000081526004016107e4906113c7565b60405180910390fd5b6000818154811061080157610800610ef1565b5b906000526020600020906006020160000160009054906101000a900473ffffffffffffffffffffffffffffffffffffffff1673ffffffffffffffffffffffffffffffffffffffff163373ffffffffffffffffffffffffffffffffffffffff16146108a0576040517f08c379a000000000000000000000000000000000000000000000000000000000815260040161089790611459565b60405180910390fd5b60008084815481106108b5576108b4610ef1565b5b90600052602060002090600602019050806005015483101561090c576040517f08c379a0000000000000000000000000000000000000000000000000000000008152600401610903906114c5565b60405180910390fd5b82816003018190555060018160040160006101000a81548160ff02191690831515021790555050505050565b6000604051905090565b600080fd5b600080fd5b6000819050919050565b61095f8161094c565b811461096a57600080fd5b50565b60008135905061097c81610956565b92915050565b60006020828403121561099857610997610942565b5b60006109a68482850161096d565b91505092915050565b600073ffffffffffffffffffffffffffffffffffffffff82169050919050565b60006109da826109af565b9050919050565b6109ea816109cf565b82525050565b600081519050919050565b600082825260208201905092915050565b60005b83811015610a2a578082015181840152602081019050610a0f565b60008484015250505050565b6000601f19601f8301169050919050565b6000610a52826109f0565b610a5c81856109fb565b9350610a6c818560208601610a0c565b610a7581610a36565b840191505092915050565b610a898161094c565b82525050565b60008115159050919050565b610aa481610a8f565b82525050565b600060c082019050610abf60008301896109e1565b8181036020830152610ad18188610a47565b90508181036040830152610ae58187610a47565b9050610af46060830186610a80565b610b016080830185610a9b565b610b0e60a0830184610a80565b979650505050505050565b600080fd5b600080fd5b7f4e487b7100000000000000000000000000000000000000000000000000000000600052604160045260246000fd5b610b5b82610a36565b810181811067ffffffffffffffff82111715610b7a57610b79610b23565b5b80604052505050565b6000610b8d610938565b9050610b998282610b52565b919050565b600067ffffffffffffffff821115610bb957610bb8610b23565b5b610bc282610a36565b9050602081019050919050565b82818337600083830152505050565b6000610bf1610bec84610b9e565b610b83565b905082815260208101848484011115610c0d57610c0c610b1e565b5b610c18848285610bcf565b509392505050565b600082601f830112610c3557610c34610b19565b5b8135610c45848260208601610bde565b91505092915050565b60008060408385031215610c6557610c64610942565b5b600083013567ffffffffffffffff811115610c8357610c82610947565b5b610c8f85828601610c20565b925050602083013567ffffffffffffffff811115610cb057610caf610947565b5b610cbc85828601610c20565b9150509250929050565b600081519050919050565b600082825260208201905092915050565b6000819050602082019050919050565b610cfb816109cf565b82525050565b600082825260208201905092915050565b6000610d1d826109f0565b610d278185610d01565b9350610d37818560208601610a0c565b610d4081610a36565b840191505092915050565b610d548161094c565b82525050565b610d6381610a8f565b82525050565b600060c083016000830151610d816000860182610cf2565b5060208301518482036020860152610d998282610d12565b91505060408301518482036040860152610db38282610d12565b9150506060830151610dc86060860182610d4b565b506080830151610ddb6080860182610d5a565b5060a0830151610dee60a0860182610d4b565b508091505092915050565b6000610e058383610d69565b905092915050565b6000602082019050919050565b6000610e2582610cc6565b610e2f8185610cd1565b935083602082028501610e4185610ce2565b8060005b85811015610e7d5784840389528151610e5e8582610df9565b9450610e6983610e0d565b925060208a01995050600181019050610e45565b50829750879550505050505092915050565b60006020820190508181036000830152610ea98184610e1a565b905092915050565b60008060408385031215610ec857610ec7610942565b5b6000610ed68582860161096d565b9250506020610ee78582860161096d565b9150509250929050565b7f4e487b7100000000000000000000000000000000000000000000000000000000600052603260045260246000fd5b7f4e487b7100000000000000000000000000000000000000000000000000000000600052601160045260246000fd5b6000610f5a8261094c565b9150610f658361094c565b9250828202610f738161094c565b91508282048414831517610f8a57610f89610f20565b5b5092915050565b6000610f9c8261094c565b9150610fa78361094c565b9250828203905081811115610fbf57610fbe610f20565b5b92915050565b7f74686973206e6674206973206e6f74206c697374656400000000000000000000600082015250565b6000610ffb6016836109fb565b915061100682610fc5565b602082019050919050565b6000602082019050818103600083015261102a81610fee565b9050919050565b7f447269766572206973206e6f7420766572696669656400000000000000000000600082015250565b60006110676016836109fb565b915061107282611031565b602082019050919050565b600060208201905081810360008301526110968161105a565b9050919050565b7f4e487b7100000000000000000000000000000000000000000000000000000000600052602260045260246000fd5b600060028204905060018216806110e457607f821691505b6020821081036110f7576110f661109d565b5b50919050565b60008190508160005260206000209050919050565b60006020601f8301049050919050565b600082821b905092915050565b60006008830261115f7fffffffffffffffffffffffffffffffffffffffffffffffffffffffffffffffff82611122565b6111698683611122565b95508019841693508086168417925050509392505050565b6000819050919050565b60006111a66111a161119c8461094c565b611181565b61094c565b9050919050565b6000819050919050565b6111c08361118b565b6111d46111cc826111ad565b84845461112f565b825550505050565b600090565b6111e96111dc565b6111f48184846111b7565b505050565b5b818110156112185761120d6000826111e1565b6001810190506111fa565b5050565b601f82111561125d5761122e816110fd565b61123784611112565b81016020851015611246578190505b61125a61125285611112565b8301826111f9565b50505b505050565b600082821c905092915050565b600061128060001984600802611262565b1980831691505092915050565b6000611299838361126f565b9150826002028217905092915050565b6112b2826109f0565b67ffffffffffffffff8111156112cb576112ca610b23565b5b6112d582546110cc565b6112e082828561121c565b600060209050601f8311600181146113135760008415611301578287015190505b61130b858261128d565b865550611373565b601f198416611321866110fd565b60005b8281101561134957848901518255600182019150602085019450602081019050611324565b868310156113665784890151611362601f89168261126f565b8355505b6001600288020188555050505b505050505050565b7f496e76616c696420726964652049440000000000000000000000000000000000600082015250565b60006113b1600f836109fb565b91506113bc8261137b565b602082019050919050565b600060208201905081810360008301526113e0816113a4565b9050919050565b7f4f6e6c792072696465206f776e65722063616e2063616c6c207468697320667560008201527f6e6374696f6e0000000000000000000000000000000000000000000000000000602082015250565b60006114436026836109fb565b915061144e826113e7565b604082019050919050565b6000602082019050818103600083015261147281611436565b9050919050565b7f70726963652073686f756c6420696e6372656173652000000000000000000000600082015250565b60006114af6016836109fb565b91506114ba82611479565b602082019050919050565b600060208201905081810360008301526114de816114a2565b905091905056fea2646970667358221220536786311a7073c56c5eaf076c4172dff21f9f50ff612e566a77fea046cbf92664736f6c63430008180033",
  "linkReferences": {},
  "deployedLinkReferences": {}
}